:040000000200333295
:01000B0032C2
:0100130032BA
:01001B0032B2
:0100230032AA
:03002B00020C4282
:0B008C00900000740AF0E4A3F0C2032F
:0300970002002E36
:05002E0012009A80FEA3
:09009A00D20190445775F0801268
:0E00A3003B2375FFDE75FFAD75FFFF120B8668
:0A00B1001202887582001235381221
:0B00BB000BA57582001235CBD2AF9070
:0900C600448275F080123B231204
:0E00CF0018A4AA82AB83C002C0031217E7ACCC
:0E00DD0082AD83D003D0029009DEECF0A3EDDB
:0900EB00F09009E074EBF0A3743D
:0C00F40017F08A828B8312242EAA82ABA4
:0E01000083ACF0EA4B4C60158A828B838CF046
:0E010E00C002C003C0041225C0D004D003D02C
:01011C0002E0
:0D011D0090449675F080C002C003C004122B
:0E012A003B23120D89AD82AE83C005C00612C4
:0E0138000CCCAF82A883D006D0059009DEEF74
:0C014600F0A3E8F09009E074D0F0A3747E
:0C0152000CF08D828E8312242EAD82AE44
:0E015E0083AFF0D004D003D002ED4E4F6036D8
:0E016C009044AC75F080C002C003C004C00512
:0E017A00C006C007123B23D007D006D0058D6B
:0E018800828E838FF0C005C006C0071225C00E
:0C019600D007D006D005D004D003D00262
:0E01A2009044C375F080C002C003C004C005C5
:0E01B000C006C007123B23D007D006D005D0F2
:0501BE0004D003D00293
:0C01C300300150C005C006C007900000CD
:0E01CF00E0F8A3E0F9E824FFFDE934FFFE901C
:0E01DD000000EDF0A3EEF0D007D006D005E84C
:0501EB00497002C20191
:0E01F0009044DC75F080C002C003C004C0055E
:0E01FE00C006C007123B2312268CD007D00685
:0A020C00D005D004D003D00280AD6D
:0E021600ED4E4F60348D828E838FF0C002C09B
:0E02240003C004C005C006C007122626D0077E
:0C023200D006D0059009E47465F0A374B8
:0C023E000DF08D828E838FF0122572D09F
:05024A0004D003D00206
:0E024F00EA4B4C60288A828B838CF0C002C080
:0D025D0003C004122626D004D003D0029066
:07026A0009E47480F0A374A5
:0B02710018F08A828B838CF01225723B
:09027C009044E175F080023B237F
:03028500D2002282
:0E028800AA8475840075F80075840F75E10076
:0E02960075E20075E30075E40043E10443E106
:0E02A4000243E10143E30443E13043E18043C0
:0E02B200E40843E20443E22043E40143A401D4
:0E02C00043A50243A50443A50843A51043A58A
:0E02CE002043A54043A58053A6F943A608751A
:0E02DC00AF0075A70075B0FF43E480E59C7588
:0E02EA009CFFE59D759DFFE59E759EFF75C806
:0E02F8000075D80075E80053AE0F53A60F43F3
:08030600A0F043E3408A8422C9
:0C030E00E582900002F0AA8475840020B3
:0C031A00022A75D80075D90875DA007544
:0E032600FC0075DA0075FE0075DA0075EA005D
:0E03340075DA0075EC0075DA0075EE0075DA0A
:040342000075E20060
:0D034600900002E0FB700675DA4275FC8045
:07035300200204D202D2DEF9
:03035A008A842270
:01035D00227D
:01035E00227C
:04035F007582002281
:010363002277
:010364002276
:010365002275
:04036600758200227A
:0E036A00AAF0AB83E582900452F0A3EBF0A35F
:0E037800EAF0900452E0FAA3E0FBA3E0FC746C
:0D038600062AFAE43BFB8A828B838CF0127E
:0E0393004437FAA3124437FBE4BA0004BB005F
:0203A100010455
:0303A300F58222BE
:0E03A600AAF0AB83E582900455F0A3EBF0A320
:0E03B400EAF0900455E0FAA3E0FBA3E0FC742D
:0E03C200062AFDE43BFE8C078D828E838FF0B1
:0E03D000124437FDA3124437FE8A828B838CC1
:0E03DE00F0124437FAA3124437FBEDB50208C3
:0803EC00EEB503047401800169
:0103F400E424
:0303F500F582226C
:0E03F800AA83E58290045BF0A3EAF090045B18
:0E040600E02401F0A3E03400F0900458E0FA86
:0D041400A3E0FBA3E0FC8A828B838CF01236
:090421004437FAA3124437FB90A2
:0E042A00045BE0FCA3E0FDECB5020BEDB503B6
:080438000790045BE4F0A3F05F
:0C04400090045BE0FAA3E08A82F58322BE
:0E044C00E5829008CDF09008CDE0FA75F00B37
:0A045A00A4FB24B5FCE43408FD7E89
:0E046400008C828D838EF0744C12380BA374C2
:0E0472000412380B74062CFFE43DF88E018F47
:0E04800082888389F0E412380BA3E412380B53
:0E048E0074022CFFE43DF88E018F8288838972
:0E049C00F0740112380BA3E412380B74042C18
:0E04AA00FFE43DF88E018F82888389F0E41212
:0E04B800380BA3E412380B74082CFCE43DFD55
:0C04C6008C828D838EF0745D12380BA3C5
:0804D200740412380BA3E412BC
:0804DA00380BEB24C0FBE434F5
:0C04E20008FC7D008B828C838DF0740A76
:0E04EE0012380BA3E412380B74062BFEE43C0C
:0E04FC00FF8D008E828F8388F0E412380BA3F0
:0E050A00E412380B74022BFEE43CFF8D008ED1
:0D051800828F8388F0740112380BA3E41267
:0E052500380B74042BFEE43CFF8D008E828F99
:0E0533008388F0E412380BA3E412380B74082E
:0C0541002BFBE43CFC8B828C838DF0745F
:06054D00AA12380BA37492
:070553000812380BA3E412AB
:09055A00380BEA24CBF582E434ED
:0A05630008F583E4F0EA24CCF582E9
:0A056D00E43408F583E4F0200320D5
:0C057700D203AA847584005389084389CC
:0E05830020439110438E10758BB2758DB275AA
:060591009850D28E8A840E
:0A0597009008CDE0FA7003020B4556
:0605A100BA0103020B5336
:0105A7002231
:0E05A800E5829008CEF09008CEE0FABA01008D
:0305B600400122DF
:0C05B900AB84758400EA75F00BA424C02C
:0C05C500FCE43408FD7E009008CFECF050
:0C05D100A3EDF0A3EEF02098030206ED6D
:0E05DD008C828D838EF0C002C0031203A6E54F
:0A05EB0082D003D00260030206EB89
:0C05F500C0038599089008CFE0FDA3E04A
:0C060100FEA3E0FF74062DF509E43EF5B1
:04060D000A8F0B85C0
:060611000982850A8385C1
:080617000BF0124437FCA312A2
:08061F004437FB0CBC00010B89
:07062700850982850A838525
:09062E000BF0EC12380BA3EB12E7
:0A063700380B74042DF509E43EF5BC
:040641000A8F0B858C
:060645000982850A83858D
:08064B000BF0124437F9A31271
:0E0653004437FB900458EDF0A3EEF0A3EFF057
:0E06610089828B83C0021203F8AB82AC83D077
:08066F0002850982850A8385DA
:090677000BF0EB12380BA3EC129E
:0E068000380B9008CFE0FBA3E0FCA3E0FD7474
:0E068E00082BFEE43CFF8D008E828F8388F0E7
:0B069C00124437FEA3124437FFA312E4
:0E06A7004437F874042BFBE43CFC8B828C83FC
:0E06B5008DF0124437FBA3124437FCEB2EFEEF
:0C06C300EC3FFF8E828F8388F0E5081268
:0906CF00380B740AB5080280041E
:0406D800D003800FBC
:0A06DC00D003EA24CCF582E43408D0
:0506E600F5837401F032
:0206EB00C298B3
:0C06ED009008CEE0FA75F00BA424B5FCD8
:0C06F900E43408FD7E009008CFECF0A374
:0B070500EDF0A3EEF0EA24CBFAE434A0
:0C07100008FF8A828F83E0F8B801098A94
:05071C00828F83E4F070
:030721003099FD0F
:0E0724008C828D838EF0C00312036AE582D0B2
:0607320003600302080948
:0E073800C0039008CFE0FAA3E0FCA3E0FD743C
:0E074600082AFEE43CFF8D008E828F8388F02F
:07075400124437F509A3125E
:06075B004437F50AA31269
:080761004437F50B74022AF580
:060769000EE43CF50F8DCB
:05076F0010850E8285DB
:060774000F838510F01256
:06077A004437F50CA31248
:050780004437F50DE512
:050785000C2509FFE551
:05078A000D350AF8AB7B
:0B078F000B8F8288838BF0124437F53B
:0C079A000974062AFBE43CFE8D008B82F3
:0E07A6008E8388F0124437F9A3124437FF19EE
:0407B400B9FF011F69
:0D07B8008B828E8388F0E912380BA3EF12BC
:0E07C500380B900458EAF0A3ECF0A3EDF08599
:0607D3000C82850D83126B
:0A07D90003F8AA82AB83850E828527
:0707E3000F838510F0EA12FC
:0A07EA00380BA3EB12380BC29985FF
:0807F40009999008CEE0FA24F7
:0A07FC00CBF582E43408F5837401A4
:03080600F0D0032C
:030809008B8422BB
:0E080C00E5829008D3F07582001235DAC2AF93
:08081A009008D3E0FABA0100D6
:0508220040030209255E
:0A082700EA75F00BA424B5FAE434DE
:0C08310008FB7C009008D4EAF0A3EBF078
:0E083D00A3ECF08A828B838CF01203A6E58276
:05084B00600302092515
:0E0850009008D4E0FAA3E0FBA3E0FC74062AB3
:0D085E00FDE43BFE8C078D828E838FF0122F
:0D086B004437F8A3124437F908B80001091A
:0D0878008D828E838FF0E812380BA3E912F9
:0E088500380B74042AFDE43BFE8C078D828E36
:0D089300838FF0124437F8A3124437F99018
:0E08A0000458EAF0A3EBF0A3ECF08882898301
:0E08AE00C005C006C0071203F8AA82AB83D0B3
:0D08BC0007D006D0058D828E838FF0EA12E2
:0808C900380BA3EB12380B9071
:0E08D10008D4E0FAA3E0FBA3E0FC74082AFDC3
:0E08DF00E43BFE8C078D828E838FF01244372F
:0E08ED00FDA3124437FEA3124437FF74042A01
:0E08FB00FAE43BFB8A828B838CF0124437FABE
:0E090900A3124437FBEA2DFDEB3EFE9008D210
:0E091700E08D828E838FF012380BD2AFD32288
:04092500D2AFC32268
:0E092900E5829008DAF09008DAE0FABA0100F0
:0E093700506C9008D7E0FBA3E0FCA3E0FD8A23
:0109450006AB
:0E0946008B828C838DF0124437FF6053BF0A02
:0E09540021900A74740DF08E82C002C003C0A0
:0E09620004C005C0061235E9D006D005D00449
:06097000D003D002502F5D
:0E0976008B828C838DF0124437FFA3AB82ACD2
:0E09840083900A74EFF08A82C002C003C004A0
:0E099200C005C0061235E9D006D005D004D04D
:0509A00003D00240A19C
:0109A500222F
:0E09A600E5829008DBF09008DBE0FABA010071
:0509B4004003020A9D52
:0A09B900EA75F00BA424C0FAE43440
:0C09C30008FB7C009008DCEAF0A3EBF0DD
:0E09CF00A3ECF08A828B838CF012036AE5821F
:0509DD006003020A9D09
:0E09E2009008DCE0FAA3E0FBA3E0FC74082A16
:0D09F000FDE43BFE8C078D828E838FF0129C
:0609FD004437F511A312BE
:060A03004437F512A312B6
:080A09004437F51374022AF5CD
:060A110016E43BF5178C12
:050A1700188516828520
:060A1C0017838518F0129B
:060A22004437F514A31295
:050A28004437F515E55F
:050A2D00142511FEE597
:050A3200153512FFADB7
:0B0A3700138E828F838DF0124437F580
:0C0A42001174062AFDE43BFF8C008D823D
:0E0A4E008F8388F0124437F9A3124437FE1943
:040A5C00B9FF011EBF
:0D0A60008D828F8388F0E912380BA3EE120F
:0E0A6D00380B900458EAF0A3EBF0A3ECF085F0
:060A7B00148285158312B0
:0A0A810003F8AA82AB838516828574
:070A8B0017838518F0EA1241
:080A9200380BA3EB12380B85B1
:030A9A00118222A4
:040A9D007582FF223D
:0E0AA100E5829008E4F09008E4E0FABA010063
:0B0AAF0050749008E2E0F51AA3E0F597
:0C0ABA001B9008DFE0FDA3E0FEA3E0FFBE
:040AC600780079003B
:0A0ACA00C3E8951AE9951B50528A03
:0E0AD40082C002C005C006C007C000C00112EB
:0C0AE200362A858219D001D000D007D040
:0C0AEE0006D005D002C374808519F063A7
:0C0AFA00F08095F05025740DB5190280B5
:010B0600C32B
:0E0B0700C002E82DFAE93EFB8F048A828B8340
:0C0B15008CF0E51912380B08B80001093B
:040B2100D00280A5D9
:070B250090000075F00022B2
:0B0B2C00E5829008E5F09008E5E02469
:0A0B3700CCF582E43408F583E024D5
:040B4100FF920422F9
:0E0B4500AA847584007598527591108A8422D6
:0B0B5300AA847584017598108A842222
:0E0B5E00E5829008E6F09008E6E0FABA0A0C8C
:0C0B6C00900A74740DF07582001235E9D7
:0C0B78009008E6E0900A74F0758200021C
:020B840035E951
:0A0B860075840F758C777AFF7B00F1
:050B90001ABAFF011B71
:040B9500EA4B70F7C0
:0C0B9900E58C30E7FB439701758AC2220F
:0E0BA5009008E7E584F075840075C90075CAF4
:0E0BB300D175CBFF75CCD175CDFF43A8207551
:0E0BC100C80675840175C90A75CACE75CBFFCA
:0E0BCF0075CCF075CDFF75C8049008E7E0F511
:020BDD00842270
:0E0BDF00AAF0AB83E582900906F0A3EBF0A329
:040BED00EAF07A00B0
:030BF100BA0A003D
:0C0BF400504BEA75F003A424E8FBE43445
:0C0C000008FC8B828C83E0FDA3E0FEA3C7
:0B0C0C00E0FF900906E0F557A3E0F5BB
:070C170058A3E0F559EDB50B
:080C1E005709EEB55805EFB5CA
:030C26005901224F
:0C0C2900ED4E4F70108B828C83E557F06D
:090C3500A3E558F0A3E559F022F3
:030C3E000A80B079
:010C41002290
:0C0C4200C022C0E0C0F0C082C083C0022D
:0E0C4E00C003C004C005C006C007C000C0013E
:070C5C00C0D075D0007A0042
:030C6300BA0A00CA
:0C0C66005041EA75F003A424E8F582E494
:0C0C72003408F583E0FBA3E0FCA3E0FDE8
:0E0C7E00EB4C4D60238B828C838DF01244373B
:0B0C8C00FEA3124437FF0EBE00010F54
:0D0C97008B828C838DF0EE12380BA3EF12D0
:020CA400380B0B
:030CA6000A80BA07
:0E0CA90012028553C87FD0D0D001D000D007F2
:0E0CB700D006D005D004D003D002D083D08266
:070CC500D0F0D0E0D0223294
:0E4457003474682047656E65726174696F6E1B
:0E446500207374617465206D616368696E6513
:0E447300207465737420737461727465642E16
:01448100003A
:0E44820047656E65726174696E672074696DBE
:0644900065626F6D620021
:0E44960047656E65726174696E672063616CC4
:0844A40063756C61746F720016
:0E44AC005265676973746572696E672063619B
:0944BA006C63756C61746F720093
:0E44C300497465726174696E67207374617468
:0B44D10065206D616368696E65730013
:0544DC006C6F6F700021
:0E44E1000A3474682047656E65726174696FF5
:0E44EF006E207374617465206D616368696E80
:0D44FD0065207465737420646F6E652E0079
:024B4500050069
:040CCC009000102262
:0E0CD000AAF0AB83E582900909F0A3EBF0A334
:0E0CDE00EAF0900909E0FAA3E0FBA3E0FC8A2B
:0C0CEC00828B838CF0740A12380BA37406
:0C0CF8004512380B74062AFDE43BFE8C0C
:0C0D0400078D828E838FF0740A12380B6A
:0A0D1000A3744512380BA37480127F
:0E0D1A00380B74022AFDE43BFE8C078D828E9E
:0C0D2800838FF0E412380B74032AF51CD2
:070D3400E43BF51D8C1E904D
:0C0D3B000ED9E0F8A3E0F9A3E0FD851C50
:090D470082851D83851EF0E8126F
:0A0D5000380BA3E912380BA3ED12D3
:0B0D5A00380B8A828B838CF0020D8D19
:0E0D6500AAF0AB83E58290090CF0A3EBF0A39B
:0E0D7300EAF090090CE0FAA3E0FBA3E0FC8A92
:080D8100828B838CF0020DC887
:040D8900900019229B
:0E0D8D00AAF0AB83E58290090FF0A3EBF0A370
:0E0D9B00EAF090090FE0FAA3E0FBA3E0FC747D
:0E0DA900152AFAE43BFB8A828B838CF0E4125D
:0A0DB700380BA3E412380BA3E4127A
:070DC100380BA3E402380B1C
:010DC8002208
:0A0DC900C01F85811FAA82AB83AC16
:0C0DD300F0E51F24FBF8860508860608E2
:0E0DDF0086078D828E838FF0124437FDBD0291
:0E0DED002374092AFAE43BFB8A828B838CF084
:070DFB00742E12380BA374E3
:080E02004512380BA3748012A5
:070E0A00380B758202800322
:030E1100758200E7
:030E1400D01F22CA
:0A0E1700C01F85811FC082C083C088
:0C0E2100F0E51F24FBF886050886060893
:0E0E2D0086078D828E838FF0124437FDBD0242
:0C0E3B002AA81F08740926FEE40836FFF0
:0C0E47000886028E828F838AF0741C12D1
:060E5300380BA3744512E8
:0D0E5900380BA3748012380B758202805D87
:0C0E6600BD042AA81F08740926FAE4083D
:0C0E720036FB0886048A828B838CF074A7
:060E7E001312380BA374EF
:080E84004512380BA374801223
:070E8C00380B758202803073
:0C0E9300BD0B2AA81F08740926FAE40809
:0C0E9F0036FB0886048A828B838CF0747A
:060EAB000A12380BA374CB
:080EB1004512380BA3748012F6
:070EB900380B758202800373
:030EC00075820038
:060EC300851F81D01F22F3
:0A0EC900C01F85811FC082C083C0D6
:0C0ED300F0E51F24FBF8860508860608E1
:0E0EDF0086078D828E838FF0124437FDBD0290
:0C0EED002AA81F08740926FEE40836FF3E
:0C0EF9000886028E828F838AF0744912F2
:060F0500380BA374451235
:0D0F0B00380BA3748012380B758202803001
:0C0F1800BD092AA81F08740926FAE40885
:0C0F240036FB0886048A828B838CF074F4
:060F30006D12380BA374E2
:080F36004512380BA374801270
:070F3E00380B7582028003ED
:030F4500758200B2
:060F4800851F81D01F226D
:090F4E00C01F85811F758200D0CF
:020F57001F2257
:0A0F5900C01F85811FC082C083C045
:0C0F6300F0E51F24FBF886050886060850
:0E0F6F0086078D828E838FF0124437FABA0205
:0C0F7D002BA81F08740926FAE40836FBB4
:0C0F89000886048A828B838CF07413129B
:060F9500380BA3744512A5
:0C0F9B00380BA3748012380B7582020220
:020FA7001073C5
:080FA900BA093D0DBD00010E67
:0E0FB1008D828E838FF0124437FDBD2D2BA84C
:0C0FBF001F08740926FAE40836FB0886B7
:0C0FCB00048A828B838CF0743712380B80
:0A0FD700A3744512380BA3748012B6
:080FE100380B75820202107347
:0C0FE900BA062AA81F08740926FAE408BA
:0C0FF50036FB0886048A828B838CF07423
:061001004912380BA37434
:081007004512380BA37480129E
:07100F00380B758202805DC1
:0C101600BA072AA81F08740926FAE4088B
:0C10220036FB0886048A828B838CF074F5
:06102E005212380BA374FE
:081034004512380BA374801271
:07103C00380B7582028030C1
:0C104300BA082AA81F08740926FAE4085D
:0C104F0036FB0886048A828B838CF074C8
:06105B005B12380BA374C8
:081061004512380BA374801244
:07106900380B7582028003C1
:0310700075820086
:06107300851F81D01F2241
:0A107900C01F85811FC082C083C024
:0C108300F0E51F24FBF88605088606082F
:0E108F0086078D828E838FF0124437FABA05E1
:0C109D002BA81F08740926FAE40836FB93
:0C10A9000886048A828B838CF0742E125F
:0610B500380BA374451284
:0C10BB00380BA3748012380B75820202FF
:0210C700116EA8
:0C10C900BA062BA81F08740926FAE408D8
:0C10D50036FB0886048A828B838CF07442
:0610E1004912380BA37454
:0810E7004512380BA3748012BE
:0810EF00380B75820202116E3C
:0C10F700BA072AA81F08740926FAE408AA
:0C11030036FB0886048A828B838CF07413
:06110F005212380BA3741C
:081115004512380BA37480128F
:07111D00380B758202804AC5
:0C112400BA082AA81F08740926FAE4087B
:0C11300036FB0886048A828B838CF074E6
:06113C005B12380BA374E6
:081142004512380BA374801262
:07114A00380B758202801DC5
:08115100BA09170DBD00010EE3
:0E1159008D828E838FF0124437FDBD2D0575FB
:04116700820180037E
:03116B007582008A
:06116E00851F81D01F2245
:0A117400C01F85811FC082C083C028
:0C117E00F0E51F24FBF886050886060833
:0E118A0086078D828E838FF0124437FDBD05DF
:0C1198002AA81F08740926FEE40836FF90
:0C11A4000886028E828F838AF0741C1271
:0611B000380BA374451288
:0D11B600380BA3748012380B758202803054
:0C11C300BD092AA81F08740926FAE408D8
:0C11CF0036FB0886048A828B838CF07447
:0611DB006D12380BA37435
:0811E1004512380BA3748012C3
:0711E900380B758202800340
:0311F00075820005
:0611F300851F81D01F22C0
:0A11F900C01F85811FC082C083C0A3
:0C120300F0E51F24FBF8860508860608AD
:0E120F0086078D828E838FF0124437FDBD025C
:0C121D002AA81F08740926FEE40836FF0A
:0C1229000886028E828F838AF07488127F
:06123500380BA374451202
:0D123B00380BA3748012380B758202806599
:08124800BD0605758201805D01
:0C125000BD072AA81F08740926FAE4084C
:0C125C0036FB0886048A828B838CF074B9
:061268005212380BA374C2
:08126E004512380BA374801235
:07127600380B758202803085
:0C127D00BD082AA81F08740926FAE4081E
:0C12890036FB0886048A828B838CF0748C
:061295005B12380BA3748C
:08129B004512380BA374801208
:0712A300380B758202800385
:0312AA007582004A
:0612AD00851F81D01F2205
:0A12B300C01F85811FAA82AB83AC27
:0C12BD00F0E51F24FBF8860508860608F3
:0E12C90086078D828E838FF0124437FDBD089C
:0E12D7002374092AFAE43BFB8A828B838CF095
:0712E500745B12380BA374C7
:0812EC004512380BA3748012B7
:0712F400380B758202800334
:0312FB00758200F9
:0312FE00D01F22DC
:06130100C01F85811FE5FD
:0C1307001F24FBF88602088603088604F9
:0E1313008A828B838CF0124437FABA08057573
:0413210082018003C2
:03132500758200CE
:03132800D01F22B1
:0A132B00C01F85811FAA82AB83ACAE
:0C133500F0E51F24FBF88605088606087A
:0E13410086078D828E838FF0124437FDBD0229
:0E134F002374092AFAE43BFB8A828B838CF01C
:07135D00749A12380BA3740F
:081364004512380BA37480123E
:07136C00380B7582028003BB
:0313730075820080
:03137600D01F2263
:0A137900C01F85811F0581AA82AB09
:0C13830083ACF0E51F24FBF8860508860B
:0C138F00060886078D828E838FF0A81F51
:0C139B0008124437F6A81F08B609380DE8
:0413A700BD00010E76
:0E13AB008D828E838FF0124437FDBD2D267487
:0E13B900092AFDE43BFE8C078D828E838FF0A7
:0713C700747612380BA374C9
:0813CE004512380BA3748012D4
:0813D600380B7582020214605D
:0C13DE00A81F08B6062574092AFDE43B90
:0C13EA00FE8C078D828E838FF0748812B9
:0613F600380BA374451240
:0D13FC00380BA3748012380B7582028057E5
:0C140900A81F08B6072574092AFDE43B63
:0C141500FE8C078D828E838FF074911284
:06142100380BA374451214
:0D142700380BA3748012380B758202802CE4
:0C143400A81F08B6082374092AFAE43B3C
:0C144000FB8A828B838CF0749A12380BAC
:0A144C00A3744512380BA37480123C
:07145600380B7582028003D0
:03145D0075820095
:06146000851F81D01F2250
:0A146600C01F85811FC082C083C033
:0C147000F0E51F24FBF88605088606083E
:0E147C0086078D828E838FF0124437FABA05F0
:0C148A002BA81F08740926FAE40836FBA2
:0C1496000886048A828B838CF0746D122F
:0614A200380BA374451293
:0C14A800380BA3748012380B758202020E
:0214B400155BC6
:0C14B600BA062BA81F08740926FAE408E7
:0C14C20036FB0886048A828B838CF07451
:0614CE008812380BA37424
:0814D4004512380BA3748012CD
:0814DC00380B75820202155B5A
:0C14E400BA072AA81F08740926FAE408B9
:0C14F00036FB0886048A828B838CF07423
:0614FC009112380BA374ED
:081502004512380BA37480129E
:07150A00380B758202804AD4
:0C151100BA082AA81F08740926FAE4088A
:0C151D0036FB0886048A828B838CF074F5
:061529009A12380BA374B6
:08152F004512380BA374801271
:07153700380B758202801DD4
:08153E00BA09170DBD00010EF2
:0E1546008D828E838FF0124437FDBD2D05750A
:04155400820180038D
:0315580075820099
:06155B00851F81D01F2254
:0E156100E582900912F0900912E0FABA2A020F
:02156F008017E3
:05157100BA2B02800A04
:05157600BA2D028009FE
:05157B00BA2F12800CE4
:04158000758201224D
:041584007582012249
:041588007582012245
:04158C007582012241
:04159000758200223E
:0A159400C01F85811FC082C083C004
:0C159E00F0E51F24FBF88605088606080F
:0E15AA0086078D828E838FF0124437FABA05C1
:0C15B8002BA81F08740926FAE40836FB73
:0C15C4000886048A828B838CF0746D1200
:0615D000380BA374451264
:0C15D600380BA3748012380B75820202DF
:0215E20016AF42
:0515E400BA09028008B5
:0515E900BA0A028003B4
:0315EE000216AC36
:0E15F10074012DFAE43EFB8F048A828B838CFA
:0D15FF00F0124437F582C005C006C0071287
:0E160C001561AA82D007D006D005EA60648D71
:0D161A00828E838FF0124437FABA092AA895
:0C1627001F08740926FBE40836FC088646
:0C163300058B828C838DF0746D12380BD7
:0A163F00A3744512380BA374801247
:07164900380B758202805F7F
:0C165000BA0A54A81F08740926FAE4081E
:0C165C0036FB0886048A828B838CF074B5
:061668002512380BA374EB
:08166E004512380BA374801231
:07167600380B75820280327F
:0C167D00A81F08740926FAE40836FB08D0
:0B16890086048A828B838CF07464124C
:06169400380BA37445129F
:0D169A00380BA3748012380B758202800893
:0516A7007582018003C3
:0316AC0075820044
:0616AF00851F81D01F22FF
:0A16B500C01F85811FC082C083C0E2
:0C16BF00F0E51F24FBF8860508860608ED
:0E16CB0086078D828E838FF0124437FDBD029C
:0C16D9002AA81F08740926FEE40836FF4A
:0C16E5000886028E828F838AF074371210
:0616F100380BA374451242
:0D16F700380BA3748012380B7582028065D9
:08170400BD0605758201805D40
:0C170C00BD072AA81F08740926FAE4088B
:0C17180036FB0886048A828B838CF074F8
:061724009112380BA374C2
:08172A004512380BA374801274
:07173200380B7582028030C4
:0C173900BD082AA81F08740926FAE4085D
:0C17450036FB0886048A828B838CF074CB
:061751009A12380BA3748C
:081757004512380BA374801247
:07175F00380B7582028003C4
:0317660075820089
:06176900851F81D01F2244
:0A176F00C01F85811FAA82AB83AC66
:0C177900F0E51F24FBF886050886060832
:0E17850086078D828E838FF0124437FDBD08DB
:0E1793002374092AFAE43BFB8A828B838CF0D4
:0717A100749A12380BA374C7
:0817A8004512380BA3748012F6
:0717B000380B758202800373
:0317B70075820038
:0317BA00D01F221B
:0617BD00C01F85811FE53D
:0C17C3001F24FBF8860208860308860439
:0E17CF008A828B838CF0124437FABA080575B3
:0417DD008201800302
:0317E1007582000E
:0317E400D01F22F1
:06450A0000000000C90DD5
:03451000AE458035
:044513000A458000D5
:02451700170E7D
:03451900BD45801D
:04451C0013458000C3
:02452000C90EC2
:03452200CB458006
:044525001C458000B1
:024529004E0F33
:03452B00DC4580EC
:04452E001C458000A8
:02453200590F1F
:03453400EE4580D1
:0445370013458000A8
:02453B007910F5
:03453D00FF4580B7
:04454000134580009F
:024544007411F0
:0345460013468099
:044549004045800069
:02454D00F91162
:03454F002746807C
:044552004045800060
:02455600B3129E
:0345580038468062
:04455B004045800057
:02455F00011346
:0345610048468049
:04456400134580007B
:024568002B1313
:03456A005946802F
:04456D001345800072
:024571007913BC
:034573006A468015
:044576001345800069
:02457A006614C5
:03457C007F4680F7
:04457F001345800060
:0245830094158D
:03458500934680DA
:044588007F458000EB
:02458C00B51662
:03458E00A74680BD
:044591007F458000E2
:024595006F179E
:03459700B84680A3
:04459A007F458000D9
:02459E00BD1747
:0345A000C846808A
:0B45A30063616C63756C61746F7200E3
:0E45AE0063616C63756C61746F725F544F5083
:0145BC0000FE
:0E45BD0063616C63756C61746F725F6F6E008A
:0E45CB0063616C63756C61746F725F72656121
:0345D90064790002
:0E45DC0063616C63756C61746F725F726573FE
:0445EA00756C740078
:0E45EE0063616C63756C61746F725F62656708
:0345FC00696E00E5
:0E45FF0063616C63756C61746F725F6E6567EB
:06460D00617465643100D8
:0E46130063616C63756C61746F725F6F7065CC
:0646210072616E643100BD
:0E46270063616C63756C61746F725F7A6572AB
:034635006F3100E2
:0E46380063616C63756C61746F725F696E74A0
:02464600310041
:0E46480063616C63756C61746F725F667261A2
:03465600633100CD
:0E46590063616C63756C61746F725F65727281
:034667006F72006F
:0E466A0063616C63756C61746F725F6F704595
:074678006E746572656400B9
:0E467F0063616C63756C61746F725F6E65676A
:06468D0061746564320057
:0E46930063616C63756C61746F725F6F70654C
:0646A10072616E6432003C
:0E46A70063616C63756C61746F725F7A65722B
:0346B5006F320061
:0E46B80063616C63756C61746F725F696E7420
:0246C6003200C0
:0E46C80063616C63756C61746F725F66726122
:0346D6006332004C
:034B4700A3458003
:0417E700900010223C
:0E17EB00AAF0AB83E582900913F0A3EBF0A304
:0E17F900EAF0900913E0FAA3E0FBA3E0FC8AFB
:0C180700828B838CF074D912380BA37410
:0C1813004612380B74062AFDE43BFE8CE4
:0C181F00078D828E838FF074D912380B75
:0A182B00A3744612380BA374801258
:0E183500380B74022AFDE43BFE8C078D828E78
:0C184300838FF0E412380B74032AF523A5
:07184F00E43BF5248C259019
:0C1856000EDCE0F8A3E0F9A3E0FD852320
:09186200828524838525F0E8123B
:0A186B00380BA3E912380BA3ED12AD
:0B187500380B8A828B838CF00218A8CD
:0E188000AAF0AB83E582900916F0A3EBF0A36B
:0E188E00EAF0900916E0FAA3E0FBA3E0FC8A62
:08189C00828B838CF00218FA24
:0418A4009000182276
:0E18A800AAF0AB83E582900919F0A3EBF0A340
:0E18B600EAF0900919E0FAA3E0FBA3E0FC744D
:0E18C400152AFDE43BFE8C078D828E838FF08B
:0E18D200E412380B74162AFDE43BFE8C078DE1
:0E18E000828E838FF0E412380B74172AFAE41C
:0C18EE003BFB8A828B838CF0E402380BF9
:0118FA0022CB
:0118FB0022CA
:0A18FC00C01F85811FC082C083C099
:0C190600F0E51F24FBF8860508860608A3
:0E19120086078D828E838FF0124437FDBD0252
:0C19200043A81F08741526FEE40836FFDB
:0E192C000886028E828F838AF0741E12380B9A
:0C193A00A81F08740926FAE40836FB0810
:0B19460086048A828B838CF074E2120E
:06195100380BA3744612DE
:0D195700380BA3748012380B758202800BD0
:08196400BD030575820180033B
:03196C0075820081
:06196F00851F81D01F223C
:0A197500C01F85811FC082C083C01F
:0C197F00F0E51F24FBF88605088606082A
:0E198B0086078D828E838FF0124437FDBD06D5
:0C19990042A81F08741626FEE40836FF62
:0E19A5000886028E828F838AF0E412380BA827
:0C19B3001F08740926FAE40836FB0886B9
:0C19BF00048A828B838CF074EB12380BCE
:0A19CB00A3744612380BA3748012B7
:0719D500380B7582028070DF
:0519DC00BD04028005BE
:0519E100BD0565803228
:0C19E600A81F08741526FAE40836FB0858
:0E19F20086048A828B838CF0124437FDBD3C44
:011A000000E5
:0E1A010050100D8A828B838CF0ED12380B8D05
:041A0F00821218FB2C
:051A1300758201803422
:0C1A1800A81F08741526FAE40836FB0825
:0E1A240086048A828B838CF0124437FD24FEE8
:0E1A320050101D8A828B838CF0ED12380B8DC4
:041A4000821218FBFB
:051A4400758201800322
:031A4900758200A3
:061A4C00851F81D01F225E
:0A1A5200C01F85811FC082C083C041
:0C1A5C00F0E51F24FBF88605088606084C
:0E1A680086078D828E838FF0124437FDBD06F7
:031A7600028003E8
:031A7900021B014C
:0C1A7C00C005A81F08741626FEE40836FA
:0E1A8800FF0886058E828F838DF0124437FE94
:0C1A9600A81F08741726FDE40836FF089E
:0E1AA20086028D828F838AF0124437FDEEB5E6
:041AB00005028004A7
:041AB400D005804990
:0C1AB800D005A81F08741526FAE40836B3
:0E1AC400FB0886048A828B838CF0124437F56F
:0C1AD200821218FBA81F08740926FAE411
:0D1ADE000836FB0886048A828B838CF07426
:061AEB00E212380BA374A7
:081AF1004612380BA3748012A9
:081AF900380B758202021BE2AA
:051B0100BD0402800D8F
:051B0600BD0502803E58
:051B0B00BD070280612E
:031B1000021BDFD6
:0C1B1300A81F08741626FAE40836FB0828
:0E1B1F0086048A828B838CF012443725E0FD09
:0E1B2D008A828B838CF012380B4305018A826A
:0E1B3B008B838CF0ED12380B758201021BE2D9
:0C1B4900A81F08741626FAE40836FB08F2
:0E1B550086048A828B838CF012443725E0FDD3
:0E1B63008A828B838CF012380B7582018071A0
:0C1B7100A81F08741526FAE40836FB08CB
:0E1B7D0086048A828B838CF0124437FD1D8A09
:0E1B8B00828B838CF0ED12380B8D82C002C06D
:0E1B990003C0041218FBD004D003D0028A82CD
:0C1BA7008B838CF0124437702AA81F08B2
:0E1BB300740926FAE40836FB0886048A828B41
:0A1BC100838CF074F412380BA37447
:081BCB004612380BA3748012CE
:071BD300380B758202800847
:051BDA0075820180038B
:031BDF007582000C
:061BE200851F81D01F22C7
:0A1BE800C01F85811FAA82AB83ACE9
:0C1BF200F0E51F24FBF8860508860608B5
:0E1BFE0086078D828E838FF0124437FDBD0165
:0E1C0C002374092AFAE43BFB8A828B838CF056
:071C1A0074D912380BA3740A
:081C21004612380BA374801277
:071C2900380B7582028003F5
:031C3000758200BA
:031C3300D01F229D
:0646D90000000000FC18C7
:0346DF000647800B
:0446E200D946800035
:0246E600751944
:0346E800134780F5
:0446EB00D94680002C
:0246EF00521A5D
:0346F100244780DB
:0446F400D946800023
:0246F800E81BBD
:0346FA00344780C2
:0946FD0074696D65426F6D620085
:0D47060074696D65426F6D625F544F500025
:0E47130074696D65426F6D625F7365747469E1
:034721006E6700C0
:0E47240074696D65426F6D625F74696D696ED8
:0247320067001E
:0E47340074696D65426F6D625F424F4F4D00BC
:034B4A00FD4680A5
:041C360090000822F0
:0E1C3A00AAF0AB83E58290091CF0A3EBF0A3A7
:0E1C4800EAF090091CE0FAA3E0FBA3E0FC8A9E
:0C1C5600828B838CF0744212380BA37454
:0C1C62004712380B74062AFDE43BFE8C90
:0C1C6E00078D828E838FF0744212380BB9
:0A1C7A00A3744712380BA374801204
:0E1C8400380B74022AFDE43BFE8C078D828E25
:0C1C9200838FF0E412380B74032AF5264F
:071C9E00E43BF5278C2890C0
:0C1CA5000EDFE0F8A3E0F9A3E0FD8526C7
:091CB100828527838528F0E812E2
:0A1CBA00380BA3E912380BA3ED125A
:0B1CC400380B8A828B838CF0021CF727
:0E1CCF00AAF0AB83E58290091FF0A3EBF0A30F
:0E1CDD00EAF090091FE0FAA3E0FBA3E0FC8A06
:081CEB00828B838CF0021D497D
:041CF3009000182223
:0E1CF700AAF0AB83E582900922F0A3EBF0A3E4
:0E1D0500EAF0900922E0FAA3E0FBA3E0FC74F0
:0E1D1300152AFDE43BFE8C078D828E838FF037
:0E1D2100E412380B74162AFDE43BFE8C078D8D
:0E1D2F00828E838FF0E412380B74172AFAE4C8
:0C1D3D003BFB8A828B838CF0E402380BA5
:011D49002277
:011D4A002276
:011D4B002275
:011D4C002274
:011D4D002273
:0A1D4E00C01F85811FAA82AB83AC81
:0E1D5800F074152AFDE43BFE8C078D828E830D
:0E1D66008FF0E412380B74162AFDE43BFE8C5D
:0E1D7400078D828E838FF0E412380B74172ACD
:0E1D8200FDE43BFE8C078D828E838FF0E41211
:0C1D9000380BE51F24FBF88605088606CA
:0E1D9C000886078D828E838FF0124437FDBDBE
:0E1DAA00022374092AFAE43BFB8A828B838CA5
:081DB800F0744B12380BA37408
:081DC0004712380BA3748012D6
:071DC800380B758202800355
:031DCF007582001A
:031DD200D01F22FD
:0A1DD500C01F85811FC082C083C0BB
:0C1DDF00F0E51F24FBF8860508860608C6
:0E1DEB0086078D828E838FF0124437FDBD0275
:0C1DF9002BA81F08740926FEE40836FF22
:0C1E05000886028E828F838AF0746F12B0
:061E1100380BA374471218
:0C1E1700380BA3748012380B7582020295
:021E23001EDDC2
:0C1E2500BD042BA81F08740926FAE4086D
:0C1E310036FB0886048A828B838CF074D8
:061E3D005D12380BA374D6
:081E43004712380BA374801252
:081E4B00380B758202021EDD56
:0C1E5300BD052AA81F08740926FAE4083F
:0C1E5F0036FB0886048A828B838CF074AA
:061E6B006612380BA3749F
:081E71004712380BA374801224
:071E7900380B758202805D49
:0C1E8000BD062AA81F08740926FAE40811
:0C1E8C0036FB0886048A828B838CF0747D
:061E98006F12380BA37469
:081E9E004712380BA3748012F7
:071EA600380B758202803049
:0C1EAD00BD072AA81F08740926FAE408E3
:0C1EB90036FB0886048A828B838CF07450
:061EC5006F12380BA3743C
:081ECB004712380BA3748012CA
:071ED300380B758202800349
:031EDA007582000E
:061EDD00851F81D01F22C9
:061EE300C01F85811FE510
:0C1EE9001F24FBF886020886030886040C
:0E1EF5008A828B838CF0124437FDBD010FC032
:0E1F030002C003C004121D4AD004D003D00255
:0E1F11008A828B838CF0124437FABA010312D5
:021F1F001D4B58
:061F2100758200D01F22B2
:091F2700C01F85811F758200D0E6
:021F30001F226E
:091F3200C01F85811F758200D0DB
:021F3B001F2263
:091F3D00C01F85811F758200D0D0
:021F46001F2258
:061F4800C01F85811FE5AA
:0C1F4E001F24FBF88602088603088604A6
:0E1F5A008A828B838CF0124437FDBD010FC0CC
:0E1F680002C003C004121D4CD004D003D002EE
:0E1F76008A828B838CF0124437FABA01031270
:021F84001D4DF1
:061F8600758200D01F224D
:06474200000000004E1D06
:034748008947801E
:04474B004247800061
:02474F00D51D76
:0347510095478009
:044754004B4780004F
:02475800E31E5E
:03475A00A84780ED
:04475D004B47800046
:02476100271F10
:03476300B84780D4
:044766004B4780003D
:02476A00321FFC
:03476C00C74780BC
:04476F004B47800034
:024773003D1FE8
:03477500D84780A2
:044778004247800034
:02477C00481FD4
:03477E00E447808D
:08478100746F6173746572002E
:0C478900746F61737465725F544F5000D0
:0E479500746F61737465725F646F6F72436C52
:0547A3006F7365640066
:0E47A800746F61737465725F68656174696E29
:0247B60067009A
:0E47B800746F61737465725F62616B696E6726
:0147C60000F2
:0E47C700746F61737465725F746F61737469EF
:0347D5006E67000C
:0C47D800746F61737465725F6F66660039
:0E47E400746F61737465725F646F6F724F70F3
:0347F200656E00F1
:034B4D008147801D
:0E1F8C00AAF0AB83E582900929F0A3EBF0A345
:0E1F9A00EAF0900929E0FAA3E0FBA3E0FC9036
:0E1FA8000928E08A828B838CF012380B7403B8
:0E1FB6002AFDE43BFE8C078D828E838FF0E4C3
:0E1FC40012380B74012AFDE43BFE8C078D825F
:0E1FD2008E838FF0740112380B74022AFDE426
:0E1FE0003BFE8C078D828E838FF0E412380B4F
:0E1FEE0074042AFAE43BFB900925E0FDA3E011
:0E1FFC00FEA3E0FF8A828B838CF0ED12380B7F
:0C200A00A3EE12380BA3EF12380BD32208
:0E201600AAF0AB83E58290092CF0A3EBF0A3B7
:0E202400EAF090092CE0FAA3E0FBA3E0FC74C4
:0E203200032AFDE43BFE8C078D828E838FF027
:0E204000E412380B74012AFDE43BFE8C078D80
:0E204E00828E838FF0740112380B74022AFA0E
:0D205C00E43BFB8A828B838CF0E402380B9E
:0E206900AAF0AB83E58290092FF0A3EBF0A361
:0E207700EAF090092FE0FAA3E0FBA3E0FC746E
:0D208500032AFAE43BFB8A828B838CF01265
:082092004437FAE4BA0001042E
:03209A00F58222AA
:0E209D00AAF0AB83E582900932F0A3EBF0A32A
:0E20AB00EAF0900932E0FAA3E0FBA3E0FC7437
:0E20B900032AFDE43BFE8C078D828E838FF0A0
:0E20C700124437FD8A828B838CF0124437FA64
:0820D500EDB502047401800165
:0120DD00E41E
:0320DE00F5822266
:0E20E100AAF0AB83E582900936F0A3EBF0A3E2
:0E20EF00EAF0900935E02401F0900936E0FA9D
:0D20FD00A3E0FBA3E0FC8A828B838CF01231
:0C210A004437FA900935E0FBB50205905F
:042116000935E4F0B3
:07211A00900935E0F5822277
:0E212100AAF0AB83E58290093CF0A3EBF0A39B
:0E212F00EAF090093CE0FAA3E0FBA3E0FC8A92
:0D213D00828B838CF012209DE582600302EE
:02214A00225D14
:0E214C0090093CE0FAA3E0FBA3E0FC74032A38
:0D215A00FDE43BFE8C078D828E838FF0121A
:0E2167004437F8088D828E838FF0E812380B13
:0E21750074022AFDE43BFE8C078D828E838F60
:0E218300F0124437900935F08A828B838CF07D
:0E219100C005C006C0071220E1AA82D007D008
:0E219F0006D0058D828E838FF0EA12380B90E9
:0E21AD00093CE0FAA3E0FBA3E0FC74042AFD69
:0E21BB00E43BFE8C078D828E838FF01244373A
:0E21C900FDA3124437FEA3124437FF74022A0E
:0E21D700FAE43BFB8A828B838CF0124437754E
:0E21E500F003A42DFDEE35F0FE900939E0FA6E
:0E21F300A3E0FBA3E0FC8D828E838FF0EA1246
:0A220100380BA3EB12380BA3EC120C
:0E220B00380B8A828B838CF0124437FAC3742E
:0E221900039AB3E433FB6019EA75F003A424C2
:0A222700E2F582740E35F0F583E055
:09223100FAA3E0FBA3E0FC800627
:06223A007A107B487C8055
:0B224000C002C003C00474F5C0E074CD
:0C224B0047C0E07480C0E0123BEBE5816E
:0622570024FAF581D322F8
:02225D00C3229A
:0E225F00AAF0AB83E582900942F0A3EBF0A356
:0E226D00EAF0900942E0FAA3E0FBA3E0FC8A4D
:0D227B00828B838CF012209DE582600302AF
:02228800234BE6
:0E228A00900942E0FAA3E0FBA3E0FC74032AF3
:0D229800FDE43BFE8C078D828E838FF012DB
:0E22A5004437F8088D828E838FF0E812380BD4
:0E22B30074012AFDE43BFE8C078D828E838F22
:0E22C100F0124437F870178A828B838CF0126B
:0E22CF004437FA1A8D828E838FF0EA12380B94
:0222DD00800B74
:0B22DF00188D828E838FF0E812380B00
:0E22EA00900942E0FAA3E0FBA3E0FC74042A92
:0D22F800FDE43BFE8C078D828E838FF0127B
:0A2305004437FDA3124437FEA31273
:08230F004437FF0ABA00010B7C
:0E2317008A828B838CF012443775F003A42D5C
:0E232500FDEE35F0FE90093FE0FAA3E0FBA3C9
:0E233300E0FC8D828E838FF0EA12380BA3EB54
:0A23410012380BA3EC12380BD32264
:02234B00C322AB
:0E234D00AAF0AB83E582900945F0A3EBF0A364
:0E235B00EAF0900945E0FAA3E0FBA3E0FC8A5B
:0D236900828B838CF0122069E582600302F4
:0223760024271A
:0E237800900945E0FAA3E0FBA3E0FC74042A00
:0D238600FDE43BFE8C078D828E838FF012EC
:062393004437F529A312F6
:062399004437F52AA312EF
:08239F004437F52B74012AF507
:0623A7002DE43BF52E8C35
:0523AD002F852D828543
:0623B2002E83852FF012BE
:0923B8004437F52C75F003A4254F
:0823C10029FFE52A35F0FEAD0D
:0B23C9002B8F828E838DF0124437F5BD
:0623D40029A3124437F5B5
:0623DA002AA3124437F5AE
:0C23E0002B74032AF8E43BF98C0588827A
:0E23EC0089838DF0124437FE1E888289838D0E
:0923FA00F0EE12380B900935E5F4
:0C2403002CF08A828B838CF01220E1AA5E
:08240F0082852D82852E838554
:072417002FF0EA12380B85DB
:06241E002982852A838556
:032424002BF02278
:0724270090000075F0002297
:0E47F500090909506F7374696E672065766557
:0D4803006E7420747970653A2025730A00E8
:0D4810003C555345525F4556454E543E0001
:0E242E00AA83E5829009E2F0A3EAF09009E2A9
:0E243C00E0FAA3E0FB8A828B83C002C0031289
:0E244A0038A2AC82AD83D003D0027E00EC4DF0
:062458004E700302256B2B
:0C245E00C002C0039009DEE0F535A3E0E9
:06246A00F536900AA1E521
:0A24700035F0A3E536F0900003C03C
:0E247A0002C003C004C005C0061239EC858202
:0A24880030858331D006D005D00462
:0A249200D003D0028530828531832B
:0E249C00C003C004C005C0061238A2A982AA5F
:0C24AA0083D006D005D004D00389328A0C
:0924B60033753400D003D002E5B7
:0424BF00324533452A
:0624C30034700302256BDA
:0A24C900740C2CF537E43DF5388E55
:0424D30039AF359058
:0724D7000925E532F0A3E541
:0724DE0033F0A3E534F09098
:0824E5000928EFF0853782851C
:0A24ED0038838539F0C002C003C037
:0E24F70004C005C006121F8CD006D005D0040C
:0E250500D003D002900A93E4F0900A94EAF01A
:0E251300A3EBF08C828D838EF0C004C005C057
:0A252100061237E3900A93E4F090ED
:07252B000A94E530F0A3E57E
:0625320031F085328285C4
:0625380033838534F0122C
:0E253E0037E3D006D005D004C004C005C006A7
:09254C007465C0E07425C0E09044
:0E25550009E0E0C0E0A3E0C0E08C828D838E40
:02256300F02264
:06256500D006D005D004F1
:07256B008C828D838EF022AB
:0E257200AAF0AB83E5829009E6F0A3EBF0A39C
:0E258000EAF09009E6E0FAA3E0FBA3E0FCEA33
:0A258E004B4C602D74ABC0E07425C7
:0E259800C0E09009E4E0C0E0A3E0C0E08A8269
:0525A6008B838CF02284
:0E25AB009009E6E0FAA3E0FBA3E0FC8A828B35
:0625B900838CF002379153
:0125BF0022F9
:0E25C000AAF0AB83E5829009E9F0A3EBF0A34B
:0E25CE00EAF09009E9E0FAA3E0FBA3E0FCEAE2
:0625DC004B4C60447A0044
:0325E200BA32000A
:0C25E500503DEA75F003A42448FBE434E8
:0C25F10009FC8B828C83E0FDA3E0FEA3BC
:0E25FD00E0FFBD001FBE001CBF00199009E9E1
:0E260B00E0FDA3E0FEA3E0FF8B828C83EDF0E8
:08261900A3EEF0A3EFF0D322C1
:032621000A80BE6E
:02262400C322CF
:0E262600AAF0AB83E5829009ECF0A3EBF0A3E1
:0E263400EAF09009ECE0FAA3E0FBA3E0FCEA78
:062642004B4C60447D00DA
:03264800BD3200A0
:0C264B00503DED75F003A42448FEE4347B
:0C26570009FFC0058E828F83E0F8A3E02D
:0E266300F9A3E0FDE8B5020AE9B50306EDB5FE
:0426710004028004DB
:04267500D005800EFE
:0E267900D0058E828F83E4F0A3F0A3F0D3226D
:032687000D80BE05
:02268A00C32269
:02268C007A00D2
:03268E00BA32005D
:0C2691005031EA75F003A42448F582E4FF
:0C269D003409F583E0FBA3E0FCA3E0FDA2
:0B26A900BB0008BC0005BD0002800D56
:0D26B4008B828C838DF0C002122874D0023E
:0326C1000A80CAC2
:0126C40022F3
:0E26C500AAF0AB83E5829009F5F0A3EBF0A339
:0E26D300EAF09009F2E0FAA3E0FBA3E0FC8A33
:0E26E100828B838CF0124437FDC374039DB3CB
:0C26EF00E433FE601BED75F003A424E250
:0A26FB00F582E4340EF583E0F53AB1
:0A270500A3E0F53BA3E0F53C8009DA
:04270F00753A3F7563
:032713003B4875CB
:022716003C8005
:092718009009EFE0F53DA3E0F5A6
:082721003EA3E0F53F7406251C
:072729003DFEE4353EFFAD6B
:0C2730003F8E828F838DF0124437FEA391
:0E273C00124437FFA3124437FDC002C003C091
:06274A0004C03AC03BC0D0
:0A2750003CC006C007C005741DC0A0
:0C275A00E07448C0E07480C0E0123BEB6B
:0E276600E58124F7F581D004D003D00274047D
:08277400253DFDE4353EFEAFFA
:0C277C003F8D828E838FF0124437FDA346
:0E278800124437FE9009F5E0FFA3E0F8A3E04D
:0C279600F9C005C006C002C003C00474F6
:0A27A200B4C0E07427C0E0C005C019
:0827AC00068F82888389F02268
:0E27B400AA82158115811581D006D005EA751F
:0A27C200F003A424EEF582E4340EC7
:0E27CC00F583E0FBA3E0FCA3E0FDC002C00328
:0A27DA00C004C005744CC0E0744850
:0E27E400C0E07480C0E0123BEBE58124FAF502
:0E27F20081D002BA02609009F5E0FBA3E0FC82
:0E280000A3E0FD74092BFBE43CFC8B828C836F
:0D280E008DF0124437FBA3124437FCA312D7
:0E281B004437FD74062BFBE43CFC8B828C835F
:0D2829008DF0124437FBA3124437FCA312BC
:0C2836004437FDC002C003C004C005749C
:0A2842005AC0E07448C0E07480C082
:0C284C00E0123BEBE58124FAF581D0029C
:0A285800C0027461C0E07448C0E0E3
:0E2862007480C0E0123BEB158115811581D00A
:04287000028A822234
:0E287400AAF0AB83E5829009F8F0A3EBF0A385
:0E288200EAF09009F8E0FAA3E0FBA3E0FC7492
:0E289000032AFDE43BFE8C078D828E838FF0C1
:0B289E00124437FDA3124437FEA312C2
:0E28A9004437FFC002C003C004C005C006C013
:0A28B700077463C0E07448C0E074C9
:0E28C10080C0E0123BEBE58124FAF581D004E3
:0E28CF00D003D00274132AFDE43BFE8C078D6B
:0D28DD00828E838FF0124437600302299031
:0B28EA00C002C003C0047472C0E074A0
:0C28F50048C0E07480C0E0123BEB15818D
:0E29010015811581D004D003D00274062AF58A
:06290F0040E43BF5418CA1
:0C291500428A828B838CF0124437F8A3B6
:0A292100124437F97D80854082855D
:07292B0041838542F0E81230
:0A293200380BA3E912380BA3ED12D5
:0E293C00380B9009EFE8F0A3E9F0A3EDF0905E
:07294A0009F274F8F0A37418
:0C2951000EF0A3E4F08A828B838CF0125D
:0E295D0026C59009F8E0FAA3E0FBA3E0FC74A5
:0E296B00132AFDE43BFE8C078D828E838FF0D5
:0E297900740112380B74142AFAE43BFB8A82B4
:092987008B838CF0740112380BF3
:0E2990009009F8E0FAA3E0FBA3E0FC740C2A27
:0E299E00FDE43BFE8C078D828E838FF0C0021D
:0E29AC00C003C004122069E582D004D003D01D
:0E29BA0002601574142AFAE43BFB8A828B83B8
:0A29C8008CF0124437700302352230
:0E29D2009009F8E0FAA3E0FBA3E0FC74062AEB
:0D29E000FDE43BFE8C078D828E838FF0128C
:0A29ED004437FDA3124437FEA31285
:0E29F7004437FF9009FEEDF0A3EEF0A3EFF0E1
:0E2A050074142AFDE43BFE8C078D828E838FB5
:0E2A1300F012443760198D828E838FF0E4122A
:062A2100380B9009FB7464
:0A2A2700F7F0A3740EF0A3E4F080B2
:012A31002183
:0E2A3200740C2AFAE43BFB8A828B838CF01230
:0E2A4000234DAA82AB83ACF09009FBEAF0A311
:052A4E00EBF0A3ECF029
:0E2A53009009F8E0FAA3E0FBA3E0FC74092A66
:0E2A6100FAE43BFB8A828B838CF0E412380B84
:0B2A6F00A3E412380BA3E412380B7430
:0A2A7A0085C0E07448C0E07480C01D
:0E2A8400E0123BEB1581158115819009FBE0F6
:072A9200FAA3E0FBA3E0FC46
:0E2A9900C002C003C0049009F8E0FDA3E0FEF7
:0C2AA700A3E0FF9009FEE0F540A3E0F57D
:062AB30041A3E0F5429092
:0E2AB90009FBE0FBA3E0FCA3E0FA9009EFE5C7
:082AC70040F0A3E541F0A3E596
:0C2ACF0042F09009F2EBF0A3ECF0A3EA57
:0E2ADB00F08D828E838FF0C002C003C0041203
:0C2AE90026C5858240D004D003D002D066
:0C2AF50004D003D002E5406003022BA9CE
:0E2B01008A828B838CF0124437FD24FC400343
:032B0F00022BA9ED
:0E2B12009009FEE0FDA3E0FEA3E0FF8D828EA1
:0E2B2000838FF0124437FDA3124437FEA31238
:0E2B2E004437FF9009FEEDF0A3EEF0A3EFF0A8
:0E2B3C009009FEE0FDA3E0FEA3E0FFED4E4F8A
:0E2B4A00601D74062DFDE43EFE8D828E838F8D
:0C2B5800F0124437FDA3124437FEA31214
:052B64004437FF80066C
:062B69007DB97E487F806B
:0D2B6F00C002C003C004C005C006C007744A
:0A2B7C009CC0E07448C0E07480C003
:0E2B8600E0123BEBE58124FAF581D004D00388
:0E2B9400D0029009FEE0FDA3E0FEA3E0FFEDFD
:072BA2004E4F6003022A9967
:072BA9007402B54002800335
:032BB000023522C9
:0E2BB3009009F8E0FAA3E0FBA3E0FC74062A08
:072BC100F543E43BF5448CF1
:052BC8004585438285F4
:062BCD0044838545F0126F
:062BD3004437F540A31297
:062BD9004437F541A31290
:0C2BDF004437F54274092AF8E43BF98CF5
:0C2BEB0005888289838DF0124437F5467E
:082BF700A3124437F547A312B5
:052BFF004437F548E534
:052C040046B5400CE59F
:052C090047B54107E59D
:062C0E0048B542028003FC
:032C1400022CB6D9
:0B2C1700C002C003C00474C0C0E07421
:0C2C220048C0E07480C0E0123BEB15815C
:0E2C2E0015811581D004D003D0029009EFE586
:082C3C0040F0A3E541F0A3E51F
:062C440042F09009F27459
:0A2C4A00F9F0A3740EF0A3E4F08A81
:0D2C5400828B838CF01226C59009F8E0F504
:082C610049A3E0F54AA3E0F5E8
:082C69004B74062549FEE43519
:0A2C71004AFFAD4B8E828F838DF079
:072C7B00E54612380BA3E54A
:062C82004712380BA3E528
:052C88004812380B901A
:072C8D0009EFE546F0A3E5A5
:072C940047F0A3E548F090B2
:072C9B0009F274F8F0A374C4
:092CA2000EF0A3E4F085498285DF
:062CAB004A83854BF01284
:052CB10026C5023505F7
:072CB60085468285478385F6
:082CBD0048F0124437FDA31298
:0A2CC5004437FEA3124437FFEDB5BB
:082CCF00406AEEB54166EFB565
:0A2CD7004262C002C003C00474D6BC
:0B2CE100C0E07448C0E07480C0E01246
:0E2CEC003BEB158115811581D004D003D00279
:072CFA0085438285448385B8
:052D010045F0E546125B
:062D0600380BA3E54712A3
:062D0C00380BA3E548129C
:062D1200380B9009EFE50B
:082D180046F0A3E547F0A3E536
:062D200048F09009F27476
:0A2D2600F8F0A3740EF0A3E4F08AA5
:0B2D3000828B838CF01226C502350553
:072D3B00854082854183857C
:062D420042F0124437F5D7
:062D480049A3124437F517
:062D4E004AA3124437F510
:072D54004BEDB5490AEEB595
:082D5B004A06EFB54B028003AC
:032D6300022E0538
:0B2D6600C002C003C00474F7C0E0749A
:0C2D710048C0E07480C0E0123BEB15810C
:0E2D7D0015811581D004D003D0029009EFE536
:082D8B0040F0A3E541F0A3E5CF
:062D930042F09009F27409
:0A2D9900F9F0A3740EF0A3E4F08A31
:0D2DA300828B838CF01226C59009F8E0F5B4
:082DB0004CA3E0F54DA3E0F592
:082DB8004E7406254CF8E435C9
:0A2DC0004DF9AD4E888289838DF035
:072DCA00E54612380BA3E5FA
:062DD1004712380BA3E5D8
:052DD7004812380B90CA
:072DDC0009EFE546F0A3E555
:072DE30047F0A3E548F09062
:072DEA0009F274F8F0A37474
:092DF1000EF0A3E4F0854C82858C
:062DFA004D83854EF0122E
:052E000026C5023505A6
:062E0500E546B5496CE54D
:052E0B0047B54A67E530
:0A2E100048B54B62C002C003C004C5
:0A2E1A007417C0E07449C0E0748032
:0E2E2400C0E0123BEB158115811581D004D062
:0A2E320003D00285438285448385A6
:052E3C0045F0E546121F
:062E4100380BA3E5471267
:062E4700380BA3E5481260
:062E4D00380B9009EFE5CF
:082E530040F0A3E541F0A3E506
:062E5B0042F09009F27440
:0A2E6100F9F0A3740EF0A3E4F08A68
:0B2E6B00828B838CF01226C502350517
:0A2E76007439C0E07449C0E07480B4
:0E2E8000C0E0123BEB158115811581900A62AE
:0A2E8E00E4F09009FEE540F0A3E532
:082E980041F0A3E542F07A00CD
:0E2EA0008A030A900A31EAF0EB75F003A424CD
:072EAE0001FBE4340AFC9073
:0E2EB50009FEE0FDA3E0FEA3E0FF8B828C830C
:0E2EC300EDF0A3EEF0A3EFF074062DFBE43E5D
:0D2ED100FC8F008B828C8388F0124437F553
:062EDE004CA3124437F57D
:062EE4004DA3124437F576
:0A2EEA004E8A017B0019B9FF011B9D
:0B2EF400C002C005C006C007C04CC0F3
:082EFF004DC04EC001C0037478
:0A2F07005BC0E07449C0E07480C0B4
:0E2F1100E0123BEBE58124F8F581D007D006F5
:0A2F1F00D005D002EDB5460AEEB56C
:082F29004706EFB548028003E2
:032F3100022FFA72
:0A2F3400C002747AC0E07449C0E0E6
:0E2F3E007480C0E0123BEB158115811581D027
:0A2F4C0002EA14FB900A31F07C0049
:0C2F5600C3EC9B5074C003C003C00474A3
:0A2F6200A4C0E07449C0E07480C010
:0E2F6C00E0123BEB158115811581D004D003D6
:092F7A009009F8E0F54CA3E0F524
:0A2F83004DA3E0F54EEC75F003A439
:0A2F8D002401F582E4340AF583E024
:0E2F9700FBA3E0F8A3E0F99009EFEBF0A3E84C
:0C2FA500F0A3E9F09009F274F9F0A374B5
:092FB1000EF0A3E4F0854C8285CA
:0A2FBA004D83854EF0C003C00412E1
:0B2FC40026C5D004D0030CD00380878A
:0E2FCF009009F8E0FBA3E0FCA3E0F874062BE9
:0C2FDD00FBE43CFC8B828C8388F0E54612
:072FE90012380BA3E54712AB
:062FF000380BA3E54812B6
:042FF600380B8032E2
:0E2FFA008D828E838FF0124437FDA312443770
:0E300800FEA3124437FF9009FEEDF0A3EEF098
:0E301600A3EFF09009FEE0FBA3E0FCA3E0FDB9
:08302400EB4C4D6003022EA0ED
:0E302C009009F8E0FAA3E0FBA3E0FC74062A8A
:0E303A00FAE43BFB8A828B838CF0124437FA57
:0C304800A3124437FBA3124437FCEAB586
:08305400460BEBB54707ECB594
:05305C004803023205EB
:0A30610074A9C0E07449C0E0748057
:0E306B00C0E0123BEB158115811581900A62C1
:0A307900E4F09009FEE546F0A3E53F
:0830830047F0A3E548F07A00D4
:0A308B00EA75F003A42432FBE434DC
:0C3095000AFC9009FEE0FDA3E0FEA3E0B1
:0E30A100FF8B828C83EDF0A3EEF0A3EFF074B2
:0E30AF00062DFBE43EFC8F008B828C8388F0A4
:0730BD00124437F54CA31289
:0630C4004437F54DA31294
:0C30CA004437F54E8A017B00C002C005AF
:0930D600C006C007C04CC04DC08B
:0A30DF004EC001C00374CBC0E074C2
:0C30E90049C0E07480C0E0123BEBE581C0
:0E30F50024F8F581D007D006D005D002EDB545
:08310300400AEEB54106EFB5EC
:04310B0042028003F9
:03310F000231CDBD
:0A31120074EAC0E07449C0E0748064
:0E311C00C0E0123BEB158115811581900A620F
:02312A00E0FBC8
:0C312C008B041BEC606BC00374A4C0E0BB
:0C3138007449C0E07480C0E0123BEB154D
:0C3144008115811581D0039009F8E0F599
:083150004CA3E0F54DA3E0F5EE
:0A3158004EEB75F003A42432F5825B
:0C316200E4340AF583C003E0FBA3E0FCAA
:0E316E00A3E0F89009EFEBF0A3ECF0A3E8F07B
:08317C009009F274F8F0A3744D
:093184000EF0A3E4F0854C8285F5
:08318D004D83854EF0C00312D2
:0831950026C5D003D003808F92
:0E319D00900A62EBF09009F8E0FBA3E0FCA3BF
:0E31AB00E0F874062BFBE43CFC8B828C8388DE
:0831B900F0E54612380BA3E516
:0631C1004712380BA3E5E4
:0631C7004812380B8038AD
:0D31CD000A900A62EAF08D828E838FF01264
:0A31DA004437FDA3124437FEA31290
:0E31E4004437FF9009FEEDF0A3EEF0A3EFF0EC
:0E31F2009009FEE0FBA3E0FCA3E0FDEB4C4DDA
:05320000600302308BA9
:0E3205009009F8E0FAA3E0FBA3E0FC74062AAF
:0E321300FAE43BFB8A828B838CF0124437FA7C
:0C322100A3124437FBA3124437FCEAB5AB
:08322D00460BEBB54707ECB5B9
:0532350048030235050D
:0A323A007414C0E0744AC0E0748010
:0E324400C0E0123BEB158115811581900A63E5
:0D325200E4F0A3F0A3F0900A62E0FA1A90F5
:0E325F000A66EAF0900A31E0FB1B8B047D004A
:0E326D008A067F00C002C003C004C005C00670
:0A327B00C007744FC0E0744AC0E0C1
:0E3285007480C0E0123BEBE58124F9F581D0A6
:0532930003D0027C00E5
:0C329800C004EB75F003A42401F582E4EF
:0C32A400340AF583E0FDA3E0FEA3E0FF88
:0B32B000EA75F003A42432F582E43438
:0C32BB000AF583E0F8A3E0F9A3E0FCEDC5
:0D32C700B5000AEEB50106EFB50402800463
:0432D400D00480653D
:0E32D800D004900A63EDF0A3EEF0A3EFF01A1D
:0E32E600900A66EAF01B900A63E0FDA3E0FE8A
:0E32F400A3E0FF74062DFDE43EFE8D828E8366
:0D3302008FF0124437FDA3124437FEA312D2
:0E330F004437FFC002C003C004C005C006C0A2
:0A331D00077475C0E0744AC0E07444
:0E33270080C0E0123BEBE58124FAF581D00472
:08333500D003D0020C02329813
:0E333D00900A66EAF0900A63E0FCA3E0FDA3AC
:0E334B00E0FE74062CFCE43DFD8C828D838E2A
:0C335900F0124437FCA3124437FDA3120D
:0A3365004437FE74062546FFE435E8
:0A336F0047F8A9488F82888389F08F
:07337900124437F54CA312CA
:063380004437F54DA312D5
:073386004437F54E740625E3
:07338D0040FFE43541F8A9FF
:0C339400428F82888389F0124437FFA327
:0E33A000124437F8A3124437F9C002C003C02C
:0A33AE0004C005C006C04CC04DC0AD
:0A33B8004EC007C000C0017495C0AC
:0C33C200E0744AC0E07480C0E0123BEBF5
:0E33CE00E58124F4F581D003D0028B047D004C
:0D33DC007E00C003C004C005C002C006741E
:0A33E9004FC0E0744AC0E07480C0D9
:0E33F300E0123BEBE58124F9F581D003EB04F9
:03340100FA7B0053
:0C340400C3EB9A5066C002C00374A4C061
:0C341000E07449C0E07480C0E0123BEBA7
:0E341C00158115811581D0039009F8E0FCA3FD
:0C342A00E0FDA3E0FEEB75F003A424011C
:0C343600F582E4340AF583E0FFA3E0F81F
:0E344200A3E0F99009EFEFF0A3E8F0A3E9F0A2
:083450009009F274F9F0A37475
:0C3458000EF0A3E4F08C828D838EF0C097
:0B346400031226C5D003D0020B809598
:06346F00900A66E0FA0A73
:0C3475008A031AEB6061C00274A4C0E07E
:0C3481007449C0E07480C0E0123BEB1501
:0E348D008115811581D0029009F8E0FBA3E0C3
:0C349B00FCA3E0FDEA75F003A42432F568
:0C34A70082E4340AF583E0FEA3E0FFA3FA
:0E34B300E0F89009EFEEF0A3EFF0A3E8F09040
:0734C10009F274F8F0A37496
:0C34C8000EF0A3E4F08B828C838DF0C02A
:0834D400021226C5D002809906
:0E34DC009009F8E0FAA3E0FBA3E0FC74062AD6
:0C34EA00FAE43BFB8A828B838CF0E54601
:0734F60012380BA3E5471299
:0634FD00380BA3E54812A4
:02350300380B83
:0E3505009009F8E0FAA3E0FBA3E0FC74142A9E
:0D351300FAE43BFB8A828B838CF07401127A
:02352000380B66
:0A35220074B3C0E0744AC0E0748086
:0C352C00C0E0123BEB15811581158122D7
:0E481D0009090943616C6C696E672073746150
:0E482B0074653A2025732C206576656E743A0C
:064839002025732C200075
:0D483F003C555345525F4556454E543E00D2
:0E484C00726573706F6E73653A2025732000DD
:07485A00746F20257320009C
:024861000A004B
:0E48630009697465726174696E672025730AB5
:014871000046
:0E4872000909696E697469616C697A696E671B
:054880002E2E2E0A009F
:0E488500090950726F63657373696E67206571
:0948930076656E742E2E2E0A00CB
:0E489C00090909090909096D6F76696E67201F
:0E48AA00746F20706172656E743A2025730A77
:0148B80000FF
:0748B9003C726F6F743E00BA
:0E48C0000909090953656C66207472616E73F4
:0848CE006974696F6E2E0A0087
:0E48D600090909095472616E736974696F6E85
:0E48E40020746F2064697265637420636869D4
:0548F2006C642E0A00B9
:0E48F700090909095472616E736974696F6E64
:0E49050020746F2064697265637420706565AC
:04491300722E0A00F6
:0E491700090909095472616E736974696F6E43
:0E49250020746F206469726563742070617283
:06493300656E742E0A00FF
:0E493900090909095363616E6E696E67207388
:0E4947006F75726365206869657261726368DE
:06495500792E2E2E0A004F
:0E495B000909090909736F757263654869657A
:0E4969007261726368795B25645D203D2025D4
:03497700730A00C0
:0E497A00090909090909466F756E6420746108
:0E4988007267657420617320616E63657374DD
:0E4996006F72206F6620736F757263650A0082
:0549A4000909090900EA
:0E49A900090909095363616E6E696E67207417
:0E49B700617267657420686965726172636879
:0649C500792E2E2E0A00DF
:0E49CB00090909090974617267657448696514
:0E49D9007261726368795B25645D203D202564
:0349E700730A0050
:0E49EA00090909090909466F756E6420736F8B
:0E49F8007572636520617320616E6365737470
:0E4A06006F72206F66207461726765740A001B
:0E4A1400090909095374696C6C2068617665A4
:0E4A22006E277420666F756E642072656C617D
:0E4A300074696F6E736869702E205363616E37
:0E4A3E006E696E6720666F72204C43412E2E0B
:034A4C002E0A002F
:0E4A4F000909090909656E747279496E64657A
:0E4A5D0078203D2025642C2065786974496E10
:0A4A6B00646578203D2025640A00F0
:0E4A7500090909090943757272656E74204CB7
:0E4A830043412063616E6469646174653A208A
:044A910025730A007F
:0E4A950009090909094C4341206F6620257369
:0E4AA30020616E642025732069733A2025730C
:024AB1000A00F9
:0E4AB30009094576656E74207175657565207C
:084AC100656D7074792E0A0086
:0E4AC90053554253544154455F4745545F498D
:044AD7004E464F00F8
:0E4ADB0053554253544154455F454E54525971
:014AE90000CC
:0E4AEA0053554253544154455F494E49544977
:0E4AF800414C5F5452414E534954494F4E00B9
:0E4B060053554253544154455F45584954009D
:084B140049474E4F5245440091
:084B1C0048414E444C454400A1
:0B4B24005452414E534954494F4E007B
:034B5000C94A80CF
:034B5300DB4A80BA
:034B5600EA4A80A8
:034B5900064B8088
:034B5C00144B8077
:034B5F001C4B806C
:034B6200244B8061
:014B6500024D
:014B6600014D
:014B6700034A
:0D353800E582900A67F0900A67E0F58202D4
:02354500030E73
:0D354700E582900A68F0900A68E0F58202C3
:02355400035D15
:0D355600E582900A69F0900A69E0F58202B2
:02356300035E05
:0D356500E582900A6AF0900A6AE0F58202A1
:02357200035FF5
:0C357400E582900A6CF0900A6CE0FA907E
:0A3580000A6BE0900003F08A82025B
:02358A000363D9
:0C358C00E582900A6EF0900A6EE0FA9062
:0A3598000A6DE0900004F08A820240
:0235A2000364C0
:0C35A400E582900A70F0900A70E0FA9046
:0A35B0000A6FE0900005F08A820225
:0235BA000365A7
:0D35BC00E582900A71F0900A71E0F582023C
:0235C900036697
:0D35CB00E582900A72F0900A72E0F582022B
:0235D800044CA1
:0D35DA00E582900A73F0900A73E0F582021A
:0235E70005A835
:0C35E900E582900A75F0900A75E0FA90F7
:0A35F5000A74E09008D2F08A8212F6
:0535FF00080C920522FA
:0C360400E582900A79F0900A79E0FA90D3
:0E3610000A76E0FBA3E0FCA3E0FD9008D7EBF8
:0C361E00F0A3ECF0A3EDF08A8202092971
:0D362A00E582900A7AF0900A7AE0F58202BB
:0236370009A6E2
:0C363900E582900A80F0900A80E0FA9090
:0E3645000A7BE0FBA3E0FCA3E0FD900A7EE020
:0E365300FEA3E0FF9008DFEBF0A3ECF0A3ED88
:0E366100F09008E2EEF0A3EFF08A82020AA1D8
:0E366F00AAF0AB83E582900A87F0A3EBF0A3EC
:0E367D00EAF0900A87E0C0E0A3E0C0E0A3E01E
:0A368B00C0E07406C0E07400C0E067
:0D369500E4C0E0123AC6E58124FAF5819008
:0736A2000A767406F0A37420
:0C36A90000F0A3E4F075820012360474F7
:0A36B5002FC0E0744BC0E07480C029
:0A36BF00E07406C0E07400C0E0E40F
:0E36C900C0E0123AC6E58124FAF581900A7637
:0A36D7007406F0A37400F0A3E4F001
:0E36E100758200123604900A84E0C0E0A3E077
:0B36EF00C0E0A3E0C0E07406C0E0747F
:0C36FA0000C0E0E4C0E0123AC6E5812404
:0B370600FAF581900A767406F0A374B7
:0B37110000F0A3E4F075820002360413
:094B2F005F5F3A5F5F3A5F5F00CF
:0E371C00AA83E582900A8CF0A3EAF0900A8C52
:0C372A00E0FAA3E0FB4A700490000022CB
:0E373600EA24FCFAEB34FFFB900EFAE0FCA351
:0E374400E0FD900A8EECF0A3EDF0900A8AE40E
:03375200F0A3F0F1
:0E375500900A8EE0FCA3E0FD4C6025EAB5046E
:0737630006EBB50502801B17
:0E376A00900A8AECF0A3EDF08C828D83E0FCD7
:0D377800A3E0FD900A8EECF0A3EDF080D0F0
:0C378500900A8EE0FAA3E08A82F583220D
:0E379100AAF0AB83E582900A90F0A3EBF0A3C0
:0E379F00EAF0900A90E0FAA3E0FBA3E08A8231
:0E37AD008B8312371CAA82AB83EA4B602890F4
:0E37BB000A8AE0FCA3E0FD4C700B8A828B832F
:0737C900A3A3E4F0A3F0222A
:0E37D0008A828B83E0FAA3E0FB8C828D83EA71
:0437DE00F0A3EBF079
:0137E20022C4
:06006200E478FFF6D8FD72
:0E37E300AC82AD83900A94E0FEA3E0FFBE002E
:0437F1000360121F40
:0937F5000F900A93E08C828D8391
:0837FE0012380BA3DEFADFF81C
:053806008C828D83227D
:080040007925E94400601B7AF8
:0500480001904B45781A
:03004D00D775A2C2
:0A0050000EE493F2A308B8000205C5
:08005A00A2D9F4DAF275A2FF4D
:0E380B0020F71030F6118883A88220F507F60A
:05381900A88375830087
:01381E002287
:03381F00F280F73D
:02382200F02292
:08382400900A9774A3F0A3744D
:0C382C000AF0904B38E493FA740193FB0F
:0B383800900A99EAF0A3EBF074A3449F
:093843000A701A900A977401241E
:0A384C00A3F0E4340AA3F01ABAFF57
:02385600011B54
:08385800900A99EAF0A3EBF0DD
:0E386000900A97E0FAA3E0FB900EFAEAF0A3BC
:0E386E00EBF0900A99E0FCA3E0FDEC2AFCEDE3
:0E387C003BFDEC24FEFCED34FFFD8A828B83C5
:0E388A00ECF0A3EDF08C828D83E4F0A3F08AC5
:0A389800828B83A3A3E4F0A3F022C7
:0E38A200AA83E582900A9BF0A3EAF0900A9BAD
:0E38B000E0FAA3E0FBC374FB9A74FF9B500484
:0438BE009000002254
:0E38C200900A9B74042AF0E43BA3F0900EFAE7
:0B38D000E0FAA3E0FB4A70031238246A
:0E38DB00900EFAE0FAA3E0FB900A9DEAF0A33B
:0B38E900EBF0900A9BE0F54FA3E0F528
:0138F4005083
:0E38F500900A9DE0FCA3E0FD8C828D83E0FE36
:0E390300A3E0FF8E008F018C028D03E8C39AB3
:0E391100F8E99BF98C828D83A3A3E0FAA3E072
:0C391F00FBE8C39AF8E99BF9C3E8954F58
:0C392B00E99550400D900A9F74042CF0A8
:06393700E43DA3F0802333
:0E393D00900A9DEEF0A3EFF0900A9DE0FAA331
:0E394B00E0FB8A828B83E0FAA3E0FB4A709CCB
:07395900900A9FE4F0A3F0C7
:0E396000900A9FE0FAA3E0FB4A70030239E0F0
:0E396E00900A9DE0FAA3E0FB74022AFCE43B01
:0E397C00FD8C828D83E0FEA3E0FF4E70139061
:0E398A000A9BE0F8A3E0F98C828D83E8F0A39D
:04399800E9F080448E
:0E399C00EE2AFEEF3BFF8A828B83E0FCA3E065
:0E39AA00FD8E828F83ECF0A3EDF08A828B837A
:0D39B800EEF0A3EFF074022EFAE43FFB9056
:0E39C5000A9BE0FCA3E0FD8A828B83ECF0A35A
:0D39D300EDF0900A9F74042EF0E43FA3F085
:0C39E000900A9FE0FAA3E08A82F583229F
:024B680000004B
:0E39EC00AA83AB828BF0900AA1E0A4F8A9F0A8
:0E39FA008AF0E0A429F98BF0A3E0A429F5835C
:043A0800888222226C
:024B3800000477
:080068007800E84400600A7909
:030070000075A276
:0600730000E4F309D8FCD3
:0800790078D7E8440E600C7911
:0B0081000F900000E4F0A3D8FCD9FAB7
:083A0C00C01F85811FC082E587
:0C3A14001F24FBF886820886830886F0D9
:0B3A2000124437FEA3124437FFA3122C
:0D3A2B004437FA74012EFBE43FFC8A05E5E8
:0C3A38001F24FBF886820886830886F0B5
:0C3A4400EB12380BA3EC12380BA3ED12B0
:0C3A5000380B8E828F838AF0A81F08E6D6
:073A5C0012380B851F81D019
:023A63001F2220
:0E3A6500AAF0AB83E582900EA7F0A3EBF0A3CE
:0E3A7300EAF0900EA3E0FAA3E0FBA3E0FC90C3
:083A81000EA6E0FD900EC174D9
:0A3A8900A7F0A3740EF0A3E4F09080
:0E3A93000EC4EAF0A3EBF0A3ECF0900EC7ED2A
:0C3AA100F0903A0C123CFFAA82AB83901C
:0E3AAD000EA7E0FCA3E0FDA3E0FE8C828D835B
:0B3ABB008EF0E412380B8A828B83220D
:063AC600C01F85811FE511
:0A3ACC001F24F8FAE51F24FBFB7C21
:0E3AD600007D40900EC1EBF0A3ECF0A3EDF0EC
:0C3AE400E51F24F8F8900EC4E6F008A3DB
:0E3AF000E6F008A3E6F0900EC7EAF0903A0C5C
:0C3AFE00123CFFAA82AB83E51F24FBF8FA
:0E3B0A0086040886050886068C828D838EF060
:0B3B1800E412380B8A828B83D01F223E
:0E3B2300AAF0AB83E582900EAAF0A3EBF0A30C
:0E3B3100EAF0900EAAE0FAA3E0FBA3E0FC7D10
:033B3F00007E0005
:0E3B42008A828B838CF0124437FF60300ABAFF
:033B500000010B66
:0E3B5300900EAAEAF0A3EBF0A3ECF08F82C074
:0E3B610002C003C004C005C006120B5ED006F1
:0E3B6F00D005D004D003D0020DBD00C70E80DB
:013B7D00C483
:0E3B7E00900EAAEAF0A3EBF0A3ECF075820A19
:0E3B8C00C005C006120B5ED006D0050DBD00B0
:023B9A00010E1A
:053B9C008D828E8322E2
:063BA100C01F85811F1208
:053BA7000B5ED01F229F
:0E3BAC00AAF0AB83E582900EAEF0A3EBF0A37F
:0E3BBA00EAF0900EAEE0FAA3E0FBA3E0FC9070
:0E3BC8000EADE0FD900EC1E4F0A3F0A3F0906E
:0E3BD6000EC4EAF0A3EBF0A3ECF0900EC7EDE6
:073BE400F0903BA1023CFF41
:063BEB00C01F85811FE5EB
:0C3BF1001F24FBFA900EC1E4F0A3F0A327
:0C3BFD00F0E51F24FBF8900EC4E6F00871
:0D3C0900A3E6F008A3E6F0900EC7EAF090E5
:063C16003BA1123CFFD0AF
:023C1C001F2265
:0C3C1E00E582900EBDF0900EBDE0FA9023
:0E3C2A000EB3E0C0E0A3E0C0E0A3E0C0E07491
:083C38004CC0E0743CC0E090B8
:0C3C40000EB1E0C0E0A3E0C0E08A8222E8
:0E3C4C00158115811581900EBBE0FAA3E0FBF7
:0C3C5A00900EBB74012AF0E43BA3F022A2
:0E3C6600E582900EBEF0900EBEE0FA74302A99
:0C3C7400FA24C6500A74072AFA3006032E
:033C8000430220DC
:053C83008A82023C1ED4
:0E3C8800E582900EBFF0900EBFE0FAC4540F1C
:0E3C9600F582C002123C66D00253020F8A82F1
:033CA400023C6679
:0E3CA700E582900EC0F0900EB6E0FAA3E0FBAE
:0E3CB500A3E0FCA3E0FD900EBAE0FE900EC06E
:043CC300E0FF782086
:0E3CC700EE2EFEED235401F94206EA2AFAEB36
:0E3CD50033FBEC33FCED33FDC3EE9F4007EEF6
:063CE300C39FFE43020135
:0E3CE900D8DC900EB6EAF0A3EBF0A3ECF0A34B
:083CF700EDF0900EBAEEF02290
:0E3CFF00AA83E582900EC8F0A3EAF0900EC8EA
:0E3D0D00E0FAA3E0FB900EB1EAF0A3EBF09019
:0E3D1B000EC1E0FAA3E0FBA3E0FC900EB3EAB9
:0E3D2900F0A3EBF0A3ECF0900EBBE4F0A3F0DF
:0E3D3700900EC4E0FAA3E0FBA3E0FC8A828BAE
:0E3D4500838CF0124437FD900EC474012AF0F6
:0D3D5300E43BA3F0A3ECF0ED700302441379
:053D6000BD25028003F7
:033D650002440B0A
:053D6800C207C208C201
:043D6D0009C20AC2BB
:043D71000BC20CC2B3
:043D75000DC20E90DD
:093D79000ECAE4F0900ECBF090AC
:0E3D82000ECC74FFF0900EC4E0FAA3E0FBA399
:023D9000E0FC55
:0E3D92008A828B838CF0124437FEA3AA82AB88
:0D3DA00083900EC4EAF0A3EBF0A3ECF090CA
:0D3DAD000ECEEEF0BE25088E82123C1E02E6
:023DBA003D3793
:053DBC008E07BF30007E
:0E3DC10040468E07EF24C6403F900ECCE0FF38
:0E3DCF00BFFF27C002C003C004900ECBE075FA
:0D3DDD00F00AA4FAEE24D0900ECB2AF0904C
:0C3DEA000ECBE0D004D003D002709DD2BC
:033DF600088099A9
:0E3DF900EF75F00AA4FFEE24D0900ECC2FF050
:023E07008089B0
:0E3E0900900ECEE0FEBE2E15900ECCE0FFBF58
:043E1700FF02800323
:033E1B00023D92D3
:083E1E00900ECCE4F0023D928D
:053E26008E07BF6100E2
:0E3E2B0040128E07EF2485400B900ECE74DF00
:063E39005EF0D2068002DB
:023E3F00C206B9
:0A3E4100900ECEE0FEBE2002805578
:053E4B00BE2B02804BBC
:053E5000BE2D028041BF
:053E5500BE4202804B9B
:053E5A00BE4302805090
:063E5F00BE440302408C8A
:063E6500BE46030240AE60
:063E6B00BE490302408C79
:053E7100BE4C0280348C
:063E7600BE4F030240965E
:063E7C00BE5003023FFCF2
:053E8200BE5302805F49
:063E8700BE550302409E3F
:063E8D00BE58030240A62E
:033E93000240B238
:053E9600D207023D927D
:053E9B00D209023D9276
:053EA000D20A023D9270
:053EA500D20C023D9269
:053EAA00D20D023D9263
:0B3EAF00300C12900EC7E0FA14F890DF
:0A3EBA000EC7F0900ECEE6F0801661
:0E3EC400900EC7E024FEF8900EC7F0860208AC
:083ED200860318900ECEEAF001
:0A3EDA00900ECEE0F582123C1E02AD
:023EE40040BEDE
:0E3EE600900EC7E024FDF8900EC7F08602088B
:0E3EF40086030886041818900EB6EAF0A3EBB9
:0E3F0200F0A3ECF0900EB6E0FAA3E0FBA3E013
:0D3F1000FC8A828B838CF012441FAA8290E1
:0C3F1D000ECCE0FBBBFF05900ECCEAF0E0
:0C3F2900200736900ECBE0FBC3EA9B5053
:0D3F35002C900ECBEBC39AF0900ECBE0FB6E
:0E3F42008B041B900ECBEBF0EC601075822010
:0D3F5000C002C003123C1ED003D00280E569
:053F5D00900ECBEBF01B
:053F6200900ECCE0FB15
:0E3F6700C002900EB6E0FCA3E0FFA3E0FA8CCF
:0C3F7500828F838AF0124437F551D0028D
:0C3F8100E551603E8B041BC374808CF083
:0C3F8D0063F08095F0502FC00285518237
:0E3F9900C002C003123C1ED003D002900EB630
:0D3FA700E0FCA3E0FFA3E0FA0CBC00010F5A
:0E3FB400900EB6ECF0A3EFF0A3EAF0D002807E
:013FC200A45A
:063FC3002007030240BECE
:0D3FC900900ECBE0FBC3EA9B40030240BE1C
:0C3FD600900ECBEBC39AF0900ECBE0FAFB
:0E3FE2008A031A900ECBEAF0EB70030240B98E
:0C3FF000758220C002123C1ED00280E648
:0E3FFC00900EC7E024FDF8900EC7F086030873
:0E400A0086040886071818900EB6EBF0A3EC9B
:0C401800F0A3EFF0900EB8E0FBBB8000BE
:0A4024004008900ECE7443F0802097
:03402E00BB600074
:0A4031004008900ECE7450F080138A
:03403B00BB400087
:0A403E004008900ECE7449F0800691
:06404800900ECE7458F04A
:0E404E00900ECEE0FBF582C003123C1E758280
:0E405C003A123C1E758230123C1E758278129C
:09406A003C1ED003BB4902800E8C
:05407300BB50028009B2
:09407800900EB7E0F582123C88BD
:0B408100900EB6E0F582123C88803201
:0A408C00D20B900ECA740AF08028CF
:08409600900ECA7408F08020AE
:08409E00900ECA740AF08018AC
:0840A600900ECA7410F08010A6
:0440AE00D20E800CA2
:0740B2008E82123C1E800506
:0540B900900ECBEAF0BF
:0B40BE00300E72900EC7E024FCF8905A
:0E40C9000EC7F08602088603088604088606E5
:0E40D700181818900EB6EAF0A3EBF0A3ECF068
:0B40E500A3EEF0900EB6743AF0A37446
:0640F0004BF0A37480F008
:0940F600900EB6E0F552A3E0F5CE
:0840FF0053A3E0F55474012500
:0741070052FEE43553FFAA4C
:0C410E0054900EB6EEF0A3EFF0A3EAF020
:07411A008552828553838565
:0941210054F0124437FA70030255
:02412A003D371F
:07412C008A82123C1E80C3D1
:0A413300900ECAE0FA7003023D3757
:08413D00900ED574D4F0A374B8
:064145000EF0300C479063
:0E414B000EC7E014F8900EC7F0E6FA3395E0C8
:0E415900FBFCFE900EB6EAF0A3EBF0A3ECF038
:09416700A3EEF0300B0302420349
:0E417000900EB6E0FAA3E0A3E0A3E07B007C93
:0E417E00007E00900EB6EAF0A3EBF0A3ECF08A
:05418C00A3EEF08072BB
:0B419100300D29900EC7E024FCF890D0
:0E419C000EC7F0860208860308860408860611
:0E41AA00181818900EB6EAF0A3EBF0A3ECF094
:0541B800A3EEF08046BB
:0E41BD00900EC7E024FEF8900EC7F0860208B0
:0E41CB00860318EB3395E0FCFE900EB6EAF08A
:0C41D900A3EBF0A3ECF0A3EEF0200B1E13
:0E41E500900EB6E0FAA3E0FBA3E0A3E07C009E
:0E41F3007E00900EB6EAF0A3EBF0A3ECF0A372
:02420100EEF0DD
:0C420300300B3E900EB6E0FAA3E0FBA3E7
:0E420F00E0FCA3E0FE30E72B900EB6E0FAA331
:0E421D00E0FBA3E0FCA3E0FEC3E49AFAE49BFE
:0E422B00FBE49CFCE49EFE900EB6EAF0A3EBD2
:09423900F0A3ECF0A3EEF080020A
:02424200C20BAD
:07424400D20F900ECAE0F555
:03424B0052755554
:03424E00D47556CE
:044251000E75510095
:09425500900EBAE4F085528212C9
:06425E003CA7200F2D908B
:094264000EBAE0C4FF8555828505
:0A426D005683E0FA4207855582856A
:094277005683EFF0155574FFB5F4
:044280005502155678
:08428400900ED5E555F0A3E50D
:04428C0056F0800C5C
:09429000900EBAE0FF855582850D
:034299005683F059
:06429C000551900ECDE576
:0542A20051F0B20F9085
:0E42A7000EB6E0FFA3E0FAA3E0FEA3E0FBEFFB
:0C42B5004A4E4B709B900ED5E555F0A3CF
:0742C100E556F0900ECDE57B
:0A42C80051F0900ECBE0FA70069062
:0542D2000ECB7401F0A9
:0742D700200827200724E561
:0842DE005104FA900ECBE0FB45
:0D42E600C3EA9B5011758220C002C0031274
:0942F3003C1ED003D0021B80EA3E
:0542FC00900ECBEBF079
:0A430100300B1275822D123C1E9045
:0B430B000ECBE0FA14900ECBF0802FD8
:0C431600900ECDE0FA602830091275828C
:0B4322002B123C1E900ECBE0FA149012
:05432D000ECBF080132F
:0A433200300A10758220123C1E9024
:09433C000ECBE0FA14900ECBF058
:0943450020072F900ECDE0FA9044
:04434E000ECBE0FBB7
:0E4352008B041B900ECBEBF0C3EA9C50363070
:0643600008047C3080021D
:024366007C20B9
:0E4368008C82C002C003123C1ED003D0028023
:01437600DB6B
:0E437700900ECBE0FA900ECDE0FCC39A5009F8
:09438500900ECBEAC39CF0800C01
:07438E00900ECBE4F0800566
:05439500900ECBEBF0DF
:0D439A00900ED5E0FAA3E0FB900ECDE0FC04
:0A43A7008C061CEE603EB20F200FE2
:0643B100140ABA00010B22
:0E43B7008A828B83E0C4540FFE900EBAF08011
:0143C5000EE9
:0E43C6008A828B83E0FE53060F900EBAEEF053
:0D43D400900EBAE0F582C002C003C00412D2
:0A43E1003C66D004D003D00280BC7B
:0643EB00200703023D372C
:0543F100900ECBE0FA84
:0943F6008A031AEB7003023D3743
:0C43FF00758220C002123C1ED00280EB30
:08440B008D82123C1E023D37B8
:0C441300900EBBE0FAA3E08A82F5832241
:0B4B3A003C4E4F20464C4F41543E00C3
:04441F00AA82AB833F
:084423001244376003A380F886
:0C442B00C3E5829AF582E5839BF58322AD
:030033007581597B
:0A003600124453E582600302002E1D
:0E44370020F71430F6148883A88220F507E6DB
:06444500A883758300222C
:03444B00E280F715
:03444E00E49322D2
:02445100E02267
:04445300758200224C
:00000001FF
